{
  "contractName": "Voting",
  "abi": [
    {
      "inputs": [
        {
          "internalType": "string[]",
          "name": "candidateNames",
          "type": "string[]"
        },
        {
          "internalType": "uint256",
          "name": "durationInSeconds",
          "type": "uint256"
        }
      ],
      "stateMutability": "nonpayable",
      "type": "constructor"
    },
    {
      "anonymous": false,
      "inputs": [],
      "name": "ElectionEnded",
      "type": "event"
    },
    {
      "anonymous": false,
      "inputs": [
        {
          "indexed": true,
          "internalType": "address",
          "name": "voter",
          "type": "address"
        },
        {
          "indexed": true,
          "internalType": "uint256",
          "name": "candidateId",
          "type": "uint256"
        }
      ],
      "name": "Voted",
      "type": "event"
    },
    {
      "anonymous": false,
      "inputs": [
        {
          "indexed": false,
          "internalType": "string",
          "name": "name",
          "type": "string"
        },
        {
          "indexed": false,
          "internalType": "uint256",
          "name": "voteCount",
          "type": "uint256"
        }
      ],
      "name": "WinnerDeclared",
      "type": "event"
    },
    {
      "inputs": [],
      "name": "admin",
      "outputs": [
        {
          "internalType": "address",
          "name": "",
          "type": "address"
        }
      ],
      "stateMutability": "view",
      "type": "function"
    },
    {
      "inputs": [
        {
          "internalType": "uint256",
          "name": "",
          "type": "uint256"
        }
      ],
      "name": "candidates",
      "outputs": [
        {
          "internalType": "string",
          "name": "name",
          "type": "string"
        },
        {
          "internalType": "uint256",
          "name": "voteCount",
          "type": "uint256"
        }
      ],
      "stateMutability": "view",
      "type": "function"
    },
    {
      "inputs": [],
      "name": "electionEnded",
      "outputs": [
        {
          "internalType": "bool",
          "name": "",
          "type": "bool"
        }
      ],
      "stateMutability": "view",
      "type": "function"
    },
    {
      "inputs": [
        {
          "internalType": "address",
          "name": "",
          "type": "address"
        }
      ],
      "name": "hasVoted",
      "outputs": [
        {
          "internalType": "bool",
          "name": "",
          "type": "bool"
        }
      ],
      "stateMutability": "view",
      "type": "function"
    },
    {
      "inputs": [],
      "name": "votingDeadline",
      "outputs": [
        {
          "internalType": "uint256",
          "name": "",
          "type": "uint256"
        }
      ],
      "stateMutability": "view",
      "type": "function"
    },
    {
      "inputs": [
        {
          "internalType": "uint256",
          "name": "candidateId",
          "type": "uint256"
        }
      ],
      "name": "vote",
      "outputs": [],
      "stateMutability": "nonpayable",
      "type": "function"
    },
    {
      "inputs": [],
      "name": "endElection",
      "outputs": [],
      "stateMutability": "nonpayable",
      "type": "function"
    },
    {
      "inputs": [],
      "name": "getCandidates",
      "outputs": [
        {
          "components": [
            {
              "internalType": "string",
              "name": "name",
              "type": "string"
            },
            {
              "internalType": "uint256",
              "name": "voteCount",
              "type": "uint256"
            }
          ],
          "internalType": "struct Voting.Candidate[]",
          "name": "",
          "type": "tuple[]"
        }
      ],
      "stateMutability": "view",
      "type": "function"
    },
    {
      "inputs": [
        {
          "internalType": "uint256",
          "name": "candidateId",
          "type": "uint256"
        }
      ],
      "name": "getCandidate",
      "outputs": [
        {
          "internalType": "string",
          "name": "",
          "type": "string"
        },
        {
          "internalType": "uint256",
          "name": "",
          "type": "uint256"
        }
      ],
      "stateMutability": "view",
      "type": "function"
    }
  ],
  "bytecode": "0x608060405234801562000010575f80fd5b5060405162001b4738038062001b478339818101604052810190620000369190620004d3565b5f8251116200007c576040517f08c379a0000000000000000000000000000000000000000000000000000000008152600401620000739062000595565b60405180910390fd5b5f8111620000c1576040517f08c379a0000000000000000000000000000000000000000000000000000000008152600401620000b89062000629565b60405180910390fd5b335f806101000a81548173ffffffffffffffffffffffffffffffffffffffff021916908373ffffffffffffffffffffffffffffffffffffffff16021790555080426200010e919062000676565b6001819055505f5b825181101562000215575f838281518110620001375762000136620006b0565b5b6020026020010151511162000183576040517f08c379a00000000000000000000000000000000000000000000000000000000081526004016200017a906200072b565b60405180910390fd5b60036040518060400160405280858481518110620001a657620001a5620006b0565b5b602002602001015181526020015f815250908060018154018082558091505060019003905f5260205f2090600202015f909190919091505f820151815f019081620001f2919062000979565b5060208201518160010155505080806200020c9062000a5d565b91505062000116565b50505062000aa9565b5f604051905090565b5f80fd5b5f80fd5b5f80fd5b5f601f19601f8301169050919050565b7f4e487b71000000000000000000000000000000000000000000000000000000005f52604160045260245ffd5b6200027b8262000233565b810181811067ffffffffffffffff821117156200029d576200029c62000243565b5b80604052505050565b5f620002b16200021e565b9050620002bf828262000270565b919050565b5f67ffffffffffffffff821115620002e157620002e062000243565b5b602082029050602081019050919050565b5f80fd5b5f80fd5b5f67ffffffffffffffff82111562000317576200031662000243565b5b620003228262000233565b9050602081019050919050565b5f5b838110156200034e57808201518184015260208101905062000331565b5f8484015250505050565b5f6200036f6200036984620002fa565b620002a6565b9050828152602081018484840111156200038e576200038d620002f6565b5b6200039b8482856200032f565b509392505050565b5f82601f830112620003ba57620003b96200022f565b5b8151620003cc84826020860162000359565b91505092915050565b5f620003eb620003e584620002c4565b620002a6565b90508083825260208201905060208402830185811115620004115762000410620002f2565b5b835b818110156200045f57805167ffffffffffffffff8111156200043a57620004396200022f565b5b808601620004498982620003a3565b8552602085019450505060208101905062000413565b5050509392505050565b5f82601f83011262000480576200047f6200022f565b5b815162000492848260208601620003d5565b91505092915050565b5f819050919050565b620004af816200049b565b8114620004ba575f80fd5b50565b5f81519050620004cd81620004a4565b92915050565b5f8060408385031215620004ec57620004eb62000227565b5b5f83015167ffffffffffffffff8111156200050c576200050b6200022b565b5b6200051a8582860162000469565b92505060206200052d85828601620004bd565b9150509250929050565b5f82825260208201905092915050565b7f4174206c65617374206f6e652063616e6469646174652072657175697265642e5f82015250565b5f6200057d60208362000537565b91506200058a8262000547565b602082019050919050565b5f6020820190508181035f830152620005ae816200056f565b9050919050565b7f4475726174696f6e206d7573742062652067726561746572207468616e207a655f8201527f726f2e0000000000000000000000000000000000000000000000000000000000602082015250565b5f6200061160238362000537565b91506200061e82620005b5565b604082019050919050565b5f6020820190508181035f830152620006428162000603565b9050919050565b7f4e487b71000000000000000000000000000000000000000000000000000000005f52601160045260245ffd5b5f62000682826200049b565b91506200068f836200049b565b9250828201905080821115620006aa57620006a962000649565b5b92915050565b7f4e487b71000000000000000000000000000000000000000000000000000000005f52603260045260245ffd5b7f43616e646964617465206e616d652063616e6e6f7420626520656d7074792e005f82015250565b5f62000713601f8362000537565b91506200072082620006dd565b602082019050919050565b5f6020820190508181035f830152620007448162000705565b9050919050565b5f81519050919050565b7f4e487b71000000000000000000000000000000000000000000000000000000005f52602260045260245ffd5b5f60028204905060018216806200079a57607f821691505b602082108103620007b057620007af62000755565b5b50919050565b5f819050815f5260205f209050919050565b5f6020601f8301049050919050565b5f82821b905092915050565b5f60088302620008147fffffffffffffffffffffffffffffffffffffffffffffffffffffffffffffffff82620007d7565b620008208683620007d7565b95508019841693508086168417925050509392505050565b5f819050919050565b5f620008616200085b62000855846200049b565b62000838565b6200049b565b9050919050565b5f819050919050565b6200087c8362000841565b620008946200088b8262000868565b848454620007e3565b825550505050565b5f90565b620008aa6200089c565b620008b781848462000871565b505050565b5b81811015620008de57620008d25f82620008a0565b600181019050620008bd565b5050565b601f8211156200092d57620008f781620007b6565b6200090284620007c8565b8101602085101562000912578190505b6200092a6200092185620007c8565b830182620008bc565b50505b505050565b5f82821c905092915050565b5f6200094f5f198460080262000932565b1980831691505092915050565b5f6200096983836200093e565b9150826002028217905092915050565b62000984826200074b565b67ffffffffffffffff811115620009a0576200099f62000243565b5b620009ac825462000782565b620009b9828285620008e2565b5f60209050601f831160018114620009ef575f8415620009da578287015190505b620009e685826200095c565b86555062000a55565b601f198416620009ff86620007b6565b5f5b8281101562000a285784890151825560018201915060208501945060208101905062000a01565b8683101562000a48578489015162000a44601f8916826200093e565b8355505b6001600288020188555050505b505050505050565b5f62000a69826200049b565b91507fffffffffffffffffffffffffffffffffffffffffffffffffffffffffffffffff820362000a9e5762000a9d62000649565b5b600182019050919050565b6110908062000ab75f395ff3fe608060405234801561000f575f80fd5b5060043610610091575f3560e01c80633477ee2e116100645780633477ee2e1461011d57806335b8e8201461014e57806359f784681461017f578063c94ca9e314610189578063f851a440146101a757610091565b80630121b93f14610095578063036ee850146100b157806306a49fce146100cf57806309eef43e146100ed575b5f80fd5b6100af60048036038101906100aa91906109fd565b6101c5565b005b6100b96103fe565b6040516100c69190610a37565b60405180910390f35b6100d7610404565b6040516100e49190610bde565b60405180910390f35b61010760048036038101906101029190610c58565b6104f9565b6040516101149190610c9d565b60405180910390f35b610137600480360381019061013291906109fd565b610516565b604051610145929190610cfe565b60405180910390f35b610168600480360381019061016391906109fd565b6105cb565b604051610176929190610cfe565b60405180910390f35b6101876106ef565b005b61019161085c565b60405161019e9190610c9d565b60405180910390f35b6101af61086e565b6040516101bc9190610d3b565b60405180910390f35b60025f9054906101000a900460ff1615610214576040517f08c379a000000000000000000000000000000000000000000000000000000000815260040161020b90610d9e565b60405180910390fd5b600154421115610259576040517f08c379a000000000000000000000000000000000000000000000000000000000815260040161025090610e06565b60405180910390fd5b60045f3373ffffffffffffffffffffffffffffffffffffffff1673ffffffffffffffffffffffffffffffffffffffff1681526020019081526020015f205f9054906101000a900460ff16156102e3576040517f08c379a00000000000000000000000000000000000000000000000000000000081526004016102da90610e6e565b60405180910390fd5b600380549050811061032a576040517f08c379a000000000000000000000000000000000000000000000000000000000815260040161032190610ed6565b60405180910390fd5b6003818154811061033e5761033d610ef4565b5b905f5260205f2090600202016001015f81548092919061035d90610f4e565b9190505550600160045f3373ffffffffffffffffffffffffffffffffffffffff1673ffffffffffffffffffffffffffffffffffffffff1681526020019081526020015f205f6101000a81548160ff021916908315150217905550803373ffffffffffffffffffffffffffffffffffffffff167f4d99b957a2bc29a30ebd96a7be8e68fe50a3c701db28a91436490b7d53870ca460405160405180910390a350565b60015481565b60606003805480602002602001604051908101604052809291908181526020015f905b828210156104f0578382905f5260205f2090600202016040518060400160405290815f8201805461045790610fc2565b80601f016020809104026020016040519081016040528092919081815260200182805461048390610fc2565b80156104ce5780601f106104a5576101008083540402835291602001916104ce565b820191905f5260205f20905b8154815290600101906020018083116104b157829003601f168201915b5050505050815260200160018201548152505081526020019060010190610427565b50505050905090565b6004602052805f5260405f205f915054906101000a900460ff1681565b60038181548110610525575f80fd5b905f5260205f2090600202015f91509050805f01805461054490610fc2565b80601f016020809104026020016040519081016040528092919081815260200182805461057090610fc2565b80156105bb5780601f10610592576101008083540402835291602001916105bb565b820191905f5260205f20905b81548152906001019060200180831161059e57829003601f168201915b5050505050908060010154905082565b60605f6003805490508310610615576040517f08c379a000000000000000000000000000000000000000000000000000000000815260040161060c90610ed6565b60405180910390fd5b5f6003848154811061062a57610629610ef4565b5b905f5260205f2090600202016040518060400160405290815f8201805461065090610fc2565b80601f016020809104026020016040519081016040528092919081815260200182805461067c90610fc2565b80156106c75780601f1061069e576101008083540402835291602001916106c7565b820191905f5260205f20905b8154815290600101906020018083116106aa57829003601f168201915b505050505081526020016001820154815250509050805f015181602001519250925050915091565b5f8054906101000a900473ffffffffffffffffffffffffffffffffffffffff1673ffffffffffffffffffffffffffffffffffffffff163373ffffffffffffffffffffffffffffffffffffffff161461077c576040517f08c379a00000000000000000000000000000000000000000000000000000000081526004016107739061103c565b60405180910390fd5b60025f9054906101000a900460ff16156107cb576040517f08c379a00000000000000000000000000000000000000000000000000000000081526004016107c290610d9e565b60405180910390fd5b600160025f6101000a81548160ff0219169083151502179055507f66ec723071e4bb646f7b35d31bc2dee8510979bd8c180edd0690d4f5e802f1e460405160405180910390a15f8061081b610891565b915091507fd6d1eeba639254bd05e36261ae299af245328ab997fd9b7823d5fff17f1b74a48282604051610850929190610cfe565b60405180910390a15050565b60025f9054906101000a900460ff1681565b5f8054906101000a900473ffffffffffffffffffffffffffffffffffffffff1681565b60605f805f905060605f5b6003805490508110156109b95782600382815481106108be576108bd610ef4565b5b905f5260205f2090600202016001015411156109a657600381815481106108e8576108e7610ef4565b5b905f5260205f2090600202016001015492506003818154811061090e5761090d610ef4565b5b905f5260205f2090600202015f01805461092790610fc2565b80601f016020809104026020016040519081016040528092919081815260200182805461095390610fc2565b801561099e5780601f106109755761010080835404028352916020019161099e565b820191905f5260205f20905b81548152906001019060200180831161098157829003601f168201915b505050505091505b80806109b190610f4e565b91505061089c565b5080829350935050509091565b5f80fd5b5f819050919050565b6109dc816109ca565b81146109e6575f80fd5b50565b5f813590506109f7816109d3565b92915050565b5f60208284031215610a1257610a116109c6565b5b5f610a1f848285016109e9565b91505092915050565b610a31816109ca565b82525050565b5f602082019050610a4a5f830184610a28565b92915050565b5f81519050919050565b5f82825260208201905092915050565b5f819050602082019050919050565b5f81519050919050565b5f82825260208201905092915050565b5f5b83811015610ab0578082015181840152602081019050610a95565b5f8484015250505050565b5f601f19601f8301169050919050565b5f610ad582610a79565b610adf8185610a83565b9350610aef818560208601610a93565b610af881610abb565b840191505092915050565b610b0c816109ca565b82525050565b5f604083015f8301518482035f860152610b2c8282610acb565b9150506020830151610b416020860182610b03565b508091505092915050565b5f610b578383610b12565b905092915050565b5f602082019050919050565b5f610b7582610a50565b610b7f8185610a5a565b935083602082028501610b9185610a6a565b805f5b85811015610bcc5784840389528151610bad8582610b4c565b9450610bb883610b5f565b925060208a01995050600181019050610b94565b50829750879550505050505092915050565b5f6020820190508181035f830152610bf68184610b6b565b905092915050565b5f73ffffffffffffffffffffffffffffffffffffffff82169050919050565b5f610c2782610bfe565b9050919050565b610c3781610c1d565b8114610c41575f80fd5b50565b5f81359050610c5281610c2e565b92915050565b5f60208284031215610c6d57610c6c6109c6565b5b5f610c7a84828501610c44565b91505092915050565b5f8115159050919050565b610c9781610c83565b82525050565b5f602082019050610cb05f830184610c8e565b92915050565b5f82825260208201905092915050565b5f610cd082610a79565b610cda8185610cb6565b9350610cea818560208601610a93565b610cf381610abb565b840191505092915050565b5f6040820190508181035f830152610d168185610cc6565b9050610d256020830184610a28565b9392505050565b610d3581610c1d565b82525050565b5f602082019050610d4e5f830184610d2c565b92915050565b7f456c656374696f6e20616c726561647920656e6465642e0000000000000000005f82015250565b5f610d88601783610cb6565b9150610d9382610d54565b602082019050919050565b5f6020820190508181035f830152610db581610d7c565b9050919050565b7f566f74696e6720706572696f642068617320656e6465642e00000000000000005f82015250565b5f610df0601883610cb6565b9150610dfb82610dbc565b602082019050919050565b5f6020820190508181035f830152610e1d81610de4565b9050919050565b7f596f75206861766520616c726561647920766f7465642e0000000000000000005f82015250565b5f610e58601783610cb6565b9150610e6382610e24565b602082019050919050565b5f6020820190508181035f830152610e8581610e4c565b9050919050565b7f496e76616c69642063616e6469646174652049442e00000000000000000000005f82015250565b5f610ec0601583610cb6565b9150610ecb82610e8c565b602082019050919050565b5f6020820190508181035f830152610eed81610eb4565b9050919050565b7f4e487b71000000000000000000000000000000000000000000000000000000005f52603260045260245ffd5b7f4e487b71000000000000000000000000000000000000000000000000000000005f52601160045260245ffd5b5f610f58826109ca565b91507fffffffffffffffffffffffffffffffffffffffffffffffffffffffffffffffff8203610f8a57610f89610f21565b5b600182019050919050565b7f4e487b71000000000000000000000000000000000000000000000000000000005f52602260045260245ffd5b5f6002820490506001821680610fd957607f821691505b602082108103610fec57610feb610f95565b5b50919050565b7f4f6e6c792061646d696e2063616e20656e642074686520656c656374696f6e2e5f82015250565b5f611026602083610cb6565b915061103182610ff2565b602082019050919050565b5f6020820190508181035f8301526110538161101a565b905091905056fea26469706673582212205f66984c51afdd96783ab60cd25ef797463f9cee2e04722b04a3fd095cd51b6464736f6c63430008150033",
  "immutableReferences": {},
  "source": "// SPDX-License-Identifier: MIT\npragma solidity ^0.8.21;\n\ncontract Voting {\n    address public admin;\n    uint public votingDeadline;\n    bool public electionEnded;\n\n    struct Candidate {\n        string name;\n        uint voteCount;\n    }\n\n    Candidate[] public candidates;\n    mapping(address => bool) public hasVoted;\n\n    event Voted(address indexed voter, uint indexed candidateId);\n    event ElectionEnded();\n    event WinnerDeclared(string name, uint voteCount);\n\n    constructor(string[] memory candidateNames, uint durationInSeconds) {\n        require(candidateNames.length > 0, \"At least one candidate required.\");\n        require(durationInSeconds > 0, \"Duration must be greater than zero.\");  \n\n        admin = msg.sender;\n        votingDeadline = block.timestamp + durationInSeconds;\n        for (uint i = 0; i < candidateNames.length; i++) {\n            require(bytes(candidateNames[i]).length > 0, \"Candidate name cannot be empty.\");\n            candidates.push(Candidate({ name: candidateNames[i], voteCount: 0}));\n        }\n    }\n\n    function vote(uint candidateId) public {\n        require(!electionEnded, \"Election already ended.\");\n        require(block.timestamp <= votingDeadline, \"Voting period has ended.\");\n        require(!hasVoted[msg.sender], \"You have already voted.\");\n        require(candidateId < candidates.length, \"Invalid candidate ID.\");\n\n        candidates[candidateId].voteCount++;\n        hasVoted[msg.sender] = true;\n\n        emit Voted(msg.sender, candidateId);\n    }\n\n    function endElection() public {\n        require(msg.sender == admin, \"Only admin can end the election.\");\n        require(!electionEnded, \"Election already ended.\");\n\n        electionEnded = true;\n        emit ElectionEnded();\n\n        (string memory winnerName, uint winningVoteCount) = determineWinner();        \n        emit WinnerDeclared(winnerName, winningVoteCount);\n    }\n\n    function determineWinner() internal view returns (string memory, uint) {\n        uint winningVoteCount = 0;\n        string memory winnerName;\n\n        for (uint i = 0; i < candidates.length; i++) {\n            if (candidates[i].voteCount > winningVoteCount) {\n                winningVoteCount = candidates[i].voteCount;\n                winnerName = candidates[i].name;\n            }\n        }\n\n        return (winnerName, winningVoteCount);\n    }\n\n    function getCandidates() public view returns (Candidate[] memory) {\n        return candidates;\n    }\n\n    function getCandidate(uint candidateId) public view returns (string memory, uint) {\n        require(candidateId < candidates.length, \"Invalid candidate ID.\");\n        Candidate memory c = candidates[candidateId];\n        return (c.name, c.voteCount);\n    }\n}",
  "sourcePath": "/Users/muftau/code/src/github.com/Decentralized-Voting-App/contracts/voting.sol",
  "compiler": {
    "name": "solc",
    "version": "0.8.21+commit.d9974bed.Emscripten.clang"
  },
  "schemaVersion": "3.4.16",
  "updatedAt": "2025-04-06T18:13:03.396Z",
  "devdoc": {
    "kind": "dev",
    "methods": {},
    "version": 1
  },
  "userdoc": {
    "kind": "user",
    "methods": {},
    "version": 1
  }
}