{
  "contractName": "Voting",
  "abi": [
    {
      "inputs": [
        {
          "internalType": "address[]",
          "name": "_candidates",
          "type": "address[]"
        },
        {
          "internalType": "uint256",
          "name": "_durationInSeconds",
          "type": "uint256"
        }
      ],
      "stateMutability": "nonpayable",
      "type": "constructor"
    },
    {
      "anonymous": false,
      "inputs": [],
      "name": "ElectionEnded",
      "type": "event"
    },
    {
      "anonymous": false,
      "inputs": [
        {
          "indexed": true,
          "internalType": "address",
          "name": "voter",
          "type": "address"
        },
        {
          "indexed": true,
          "internalType": "address",
          "name": "candidate",
          "type": "address"
        }
      ],
      "name": "Voted",
      "type": "event"
    },
    {
      "anonymous": false,
      "inputs": [
        {
          "indexed": false,
          "internalType": "address",
          "name": "winner",
          "type": "address"
        },
        {
          "indexed": false,
          "internalType": "uint256",
          "name": "voteCount",
          "type": "uint256"
        }
      ],
      "name": "WinnerDeclared",
      "type": "event"
    },
    {
      "inputs": [],
      "name": "admin",
      "outputs": [
        {
          "internalType": "address",
          "name": "",
          "type": "address"
        }
      ],
      "stateMutability": "view",
      "type": "function"
    },
    {
      "inputs": [
        {
          "internalType": "uint256",
          "name": "",
          "type": "uint256"
        }
      ],
      "name": "candidates",
      "outputs": [
        {
          "internalType": "address",
          "name": "",
          "type": "address"
        }
      ],
      "stateMutability": "view",
      "type": "function"
    },
    {
      "inputs": [],
      "name": "electionEnded",
      "outputs": [
        {
          "internalType": "bool",
          "name": "",
          "type": "bool"
        }
      ],
      "stateMutability": "view",
      "type": "function"
    },
    {
      "inputs": [
        {
          "internalType": "address",
          "name": "",
          "type": "address"
        }
      ],
      "name": "hasVoted",
      "outputs": [
        {
          "internalType": "bool",
          "name": "",
          "type": "bool"
        }
      ],
      "stateMutability": "view",
      "type": "function"
    },
    {
      "inputs": [
        {
          "internalType": "address",
          "name": "",
          "type": "address"
        }
      ],
      "name": "voteCount",
      "outputs": [
        {
          "internalType": "uint256",
          "name": "",
          "type": "uint256"
        }
      ],
      "stateMutability": "view",
      "type": "function"
    },
    {
      "inputs": [],
      "name": "votingDeadline",
      "outputs": [
        {
          "internalType": "uint256",
          "name": "",
          "type": "uint256"
        }
      ],
      "stateMutability": "view",
      "type": "function"
    },
    {
      "inputs": [
        {
          "internalType": "address",
          "name": "candidate",
          "type": "address"
        }
      ],
      "name": "vote",
      "outputs": [],
      "stateMutability": "nonpayable",
      "type": "function"
    },
    {
      "inputs": [],
      "name": "endElection",
      "outputs": [],
      "stateMutability": "nonpayable",
      "type": "function"
    },
    {
      "inputs": [],
      "name": "getCandidates",
      "outputs": [
        {
          "internalType": "address[]",
          "name": "",
          "type": "address[]"
        }
      ],
      "stateMutability": "view",
      "type": "function"
    }
  ],
  "bytecode": "0x608060405234801562000010575f80fd5b5060405162001438380380620014388339818101604052810190620000369190620003d2565b5f8251116200007c576040517f08c379a0000000000000000000000000000000000000000000000000000000008152600401620000739062000494565b60405180910390fd5b5f8111620000c1576040517f08c379a0000000000000000000000000000000000000000000000000000000008152600401620000b89062000502565b60405180910390fd5b335f806101000a81548173ffffffffffffffffffffffffffffffffffffffff021916908373ffffffffffffffffffffffffffffffffffffffff16021790555080426200010e91906200054f565b6005819055505f5b8251811015620001b357600183828151811062000138576200013762000589565b5b6020026020010151908060018154018082558091505060019003905f5260205f20015f9091909190916101000a81548173ffffffffffffffffffffffffffffffffffffffff021916908373ffffffffffffffffffffffffffffffffffffffff1602179055508080620001aa90620005b6565b91505062000116565b50505062000602565b5f604051905090565b5f80fd5b5f80fd5b5f80fd5b5f601f19601f8301169050919050565b7f4e487b71000000000000000000000000000000000000000000000000000000005f52604160045260245ffd5b6200021982620001d1565b810181811067ffffffffffffffff821117156200023b576200023a620001e1565b5b80604052505050565b5f6200024f620001bc565b90506200025d82826200020e565b919050565b5f67ffffffffffffffff8211156200027f576200027e620001e1565b5b602082029050602081019050919050565b5f80fd5b5f73ffffffffffffffffffffffffffffffffffffffff82169050919050565b5f620002bf8262000294565b9050919050565b620002d181620002b3565b8114620002dc575f80fd5b50565b5f81519050620002ef81620002c6565b92915050565b5f6200030b620003058462000262565b62000244565b9050808382526020820190506020840283018581111562000331576200033062000290565b5b835b818110156200035e5780620003498882620002df565b84526020840193505060208101905062000333565b5050509392505050565b5f82601f8301126200037f576200037e620001cd565b5b815162000391848260208601620002f5565b91505092915050565b5f819050919050565b620003ae816200039a565b8114620003b9575f80fd5b50565b5f81519050620003cc81620003a3565b92915050565b5f8060408385031215620003eb57620003ea620001c5565b5b5f83015167ffffffffffffffff8111156200040b576200040a620001c9565b5b620004198582860162000368565b92505060206200042c85828601620003bc565b9150509250929050565b5f82825260208201905092915050565b7f4174206c65617374206f6e652063616e646964617465207265717569726564005f82015250565b5f6200047c601f8362000436565b9150620004898262000446565b602082019050919050565b5f6020820190508181035f830152620004ad816200046e565b9050919050565b7f4475726174696f6e206d7573742062652067726561746572207468616e2030005f82015250565b5f620004ea601f8362000436565b9150620004f782620004b4565b602082019050919050565b5f6020820190508181035f8301526200051b81620004dc565b9050919050565b7f4e487b71000000000000000000000000000000000000000000000000000000005f52601160045260245ffd5b5f6200055b826200039a565b915062000568836200039a565b925082820190508082111562000583576200058262000522565b5b92915050565b7f4e487b71000000000000000000000000000000000000000000000000000000005f52603260045260245ffd5b5f620005c2826200039a565b91507fffffffffffffffffffffffffffffffffffffffffffffffffffffffffffffffff8203620005f757620005f662000522565b5b600182019050919050565b610e2880620006105f395ff3fe608060405234801561000f575f80fd5b5060043610610091575f3560e01c806359f784681161006457806359f78468146101315780635e3cd7bc1461013b5780636dd7d8ea1461016b578063c94ca9e314610187578063f851a440146101a557610091565b8063036ee8501461009557806306a49fce146100b357806309eef43e146100d15780633477ee2e14610101575b5f80fd5b61009d6101c3565b6040516100aa91906108e9565b60405180910390f35b6100bb6101c9565b6040516100c891906109e9565b60405180910390f35b6100eb60048036038101906100e69190610a37565b610254565b6040516100f89190610a7c565b60405180910390f35b61011b60048036038101906101169190610abf565b610271565b6040516101289190610af9565b60405180910390f35b6101396102ac565b005b61015560048036038101906101509190610a37565b610419565b60405161016291906108e9565b60405180910390f35b61018560048036038101906101809190610a37565b61042e565b005b61018f61072c565b60405161019c9190610a7c565b60405180910390f35b6101ad61073e565b6040516101ba9190610af9565b60405180910390f35b60055481565b6060600180548060200260200160405190810160405280929190818152602001828054801561024a57602002820191905f5260205f20905b815f9054906101000a900473ffffffffffffffffffffffffffffffffffffffff1673ffffffffffffffffffffffffffffffffffffffff1681526020019060010190808311610201575b5050505050905090565b6003602052805f5260405f205f915054906101000a900460ff1681565b60018181548110610280575f80fd5b905f5260205f20015f915054906101000a900473ffffffffffffffffffffffffffffffffffffffff1681565b5f8054906101000a900473ffffffffffffffffffffffffffffffffffffffff1673ffffffffffffffffffffffffffffffffffffffff163373ffffffffffffffffffffffffffffffffffffffff1614610339576040517f08c379a000000000000000000000000000000000000000000000000000000000815260040161033090610b6c565b60405180910390fd5b60045f9054906101000a900460ff1615610388576040517f08c379a000000000000000000000000000000000000000000000000000000000815260040161037f90610bd4565b60405180910390fd5b600160045f6101000a81548160ff0219169083151502179055507f66ec723071e4bb646f7b35d31bc2dee8510979bd8c180edd0690d4f5e802f1e460405160405180910390a15f806103d8610761565b915091507f3cf1af53e79884a92609ce59db1ec9f584d88e2d14c8eaba43a21db81318301e828260405161040d929190610bf2565b60405180910390a15050565b6002602052805f5260405f205f915090505481565b60045f9054906101000a900460ff161561047d576040517f08c379a000000000000000000000000000000000000000000000000000000000815260040161047490610bd4565b60405180910390fd5b6005544211156104c2576040517f08c379a00000000000000000000000000000000000000000000000000000000081526004016104b990610c63565b60405180910390fd5b60035f3373ffffffffffffffffffffffffffffffffffffffff1673ffffffffffffffffffffffffffffffffffffffff1681526020019081526020015f205f9054906101000a900460ff161561054c576040517f08c379a000000000000000000000000000000000000000000000000000000000815260040161054390610ccb565b60405180910390fd5b5f805b6001805490508110156105e6578273ffffffffffffffffffffffffffffffffffffffff166001828154811061058757610586610ce9565b5b905f5260205f20015f9054906101000a900473ffffffffffffffffffffffffffffffffffffffff1673ffffffffffffffffffffffffffffffffffffffff16036105d357600191506105e6565b80806105de90610d43565b91505061054f565b5080610627576040517f08c379a000000000000000000000000000000000000000000000000000000000815260040161061e90610dd4565b60405180910390fd5b60025f8373ffffffffffffffffffffffffffffffffffffffff1673ffffffffffffffffffffffffffffffffffffffff1681526020019081526020015f205f81548092919061067490610d43565b9190505550600160035f3373ffffffffffffffffffffffffffffffffffffffff1673ffffffffffffffffffffffffffffffffffffffff1681526020019081526020015f205f6101000a81548160ff0219169083151502179055508173ffffffffffffffffffffffffffffffffffffffff163373ffffffffffffffffffffffffffffffffffffffff167fce0c7a2a940807f7dc2ce7a615c2532e915e6c0ac9a08bc4ed9d515a710a53e260405160405180910390a35050565b60045f9054906101000a900460ff1681565b5f8054906101000a900473ffffffffffffffffffffffffffffffffffffffff1681565b5f805f80805f90505b6001805490508110156108c4578260025f6001848154811061078f5761078e610ce9565b5b905f5260205f20015f9054906101000a900473ffffffffffffffffffffffffffffffffffffffff1673ffffffffffffffffffffffffffffffffffffffff1673ffffffffffffffffffffffffffffffffffffffff1681526020019081526020015f205411156108b15760025f6001838154811061080e5761080d610ce9565b5b905f5260205f20015f9054906101000a900473ffffffffffffffffffffffffffffffffffffffff1673ffffffffffffffffffffffffffffffffffffffff1673ffffffffffffffffffffffffffffffffffffffff1681526020019081526020015f205492506001818154811061088657610885610ce9565b5b905f5260205f20015f9054906101000a900473ffffffffffffffffffffffffffffffffffffffff1691505b80806108bc90610d43565b91505061076a565b5080829350935050509091565b5f819050919050565b6108e3816108d1565b82525050565b5f6020820190506108fc5f8301846108da565b92915050565b5f81519050919050565b5f82825260208201905092915050565b5f819050602082019050919050565b5f73ffffffffffffffffffffffffffffffffffffffff82169050919050565b5f6109548261092b565b9050919050565b6109648161094a565b82525050565b5f610975838361095b565b60208301905092915050565b5f602082019050919050565b5f61099782610902565b6109a1818561090c565b93506109ac8361091c565b805f5b838110156109dc5781516109c3888261096a565b97506109ce83610981565b9250506001810190506109af565b5085935050505092915050565b5f6020820190508181035f830152610a01818461098d565b905092915050565b5f80fd5b610a168161094a565b8114610a20575f80fd5b50565b5f81359050610a3181610a0d565b92915050565b5f60208284031215610a4c57610a4b610a09565b5b5f610a5984828501610a23565b91505092915050565b5f8115159050919050565b610a7681610a62565b82525050565b5f602082019050610a8f5f830184610a6d565b92915050565b610a9e816108d1565b8114610aa8575f80fd5b50565b5f81359050610ab981610a95565b92915050565b5f60208284031215610ad457610ad3610a09565b5b5f610ae184828501610aab565b91505092915050565b610af38161094a565b82525050565b5f602082019050610b0c5f830184610aea565b92915050565b5f82825260208201905092915050565b7f4f6e6c792061646d696e2063616e20656e642074686520656c656374696f6e005f82015250565b5f610b56601f83610b12565b9150610b6182610b22565b602082019050919050565b5f6020820190508181035f830152610b8381610b4a565b9050919050565b7f456c656374696f6e20616c726561647920656e646564000000000000000000005f82015250565b5f610bbe601683610b12565b9150610bc982610b8a565b602082019050919050565b5f6020820190508181035f830152610beb81610bb2565b9050919050565b5f604082019050610c055f830185610aea565b610c1260208301846108da565b9392505050565b7f566f74696e6720706572696f642068617320656e6465640000000000000000005f82015250565b5f610c4d601783610b12565b9150610c5882610c19565b602082019050919050565b5f6020820190508181035f830152610c7a81610c41565b9050919050565b7f596f75206861766520616c726561647920766f7465642e0000000000000000005f82015250565b5f610cb5601783610b12565b9150610cc082610c81565b602082019050919050565b5f6020820190508181035f830152610ce281610ca9565b9050919050565b7f4e487b71000000000000000000000000000000000000000000000000000000005f52603260045260245ffd5b7f4e487b71000000000000000000000000000000000000000000000000000000005f52601160045260245ffd5b5f610d4d826108d1565b91507fffffffffffffffffffffffffffffffffffffffffffffffffffffffffffffffff8203610d7f57610d7e610d16565b5b600182019050919050565b7f496e76616c69642063616e6469646174650000000000000000000000000000005f82015250565b5f610dbe601183610b12565b9150610dc982610d8a565b602082019050919050565b5f6020820190508181035f830152610deb81610db2565b905091905056fea26469706673582212200d22dc8fe8f1f4a434a8d07342a9378a151c2e1e22debe147a1f480c1914a15a64736f6c63430008150033",
  "immutableReferences": {},
  "source": "// SPDX-License-Identifier: MIT\npragma solidity ^0.8.21;\n\ncontract Voting {\n    address public admin;\n    address[] public candidates;\n    mapping(address => uint) public voteCount;\n    mapping(address => bool) public hasVoted;\n    bool public electionEnded;\n    uint public votingDeadline;\n\n    event Voted(address indexed voter, address indexed candidate);\n    event ElectionEnded();\n    event WinnerDeclared(address winner, uint voteCount);\n\n    constructor(address[] memory _candidates, uint _durationInSeconds) {\n        require(_candidates.length > 0, \"At least one candidate required\");\n        require(_durationInSeconds > 0, \"Duration must be greater than 0\");\n\n        admin = msg.sender;\n        votingDeadline = block.timestamp + _durationInSeconds;\n\n        for (uint i = 0; i < _candidates.length; i++) {\n            candidates.push(_candidates[i]);\n        }\n    }\n\n    function vote(address candidate) public {\n        require(!electionEnded, \"Election already ended\");\n        require(block.timestamp <= votingDeadline, \"Voting period has ended\");\n        require(!hasVoted[msg.sender], \"You have already voted.\");\n\n        bool valid = false;\n        for (uint i = 0; i < candidates.length; i++) {\n            if (candidates[i] == candidate) {\n                valid = true;\n                break;\n            }\n        }\n\n        require(valid, \"Invalid candidate\");\n\n        voteCount[candidate]++;\n        hasVoted[msg.sender] = true;\n\n        emit Voted(msg.sender, candidate);\n    }\n\n    function endElection() public {\n        require(msg.sender == admin, \"Only admin can end the election\");\n        require(!electionEnded, \"Election already ended\");\n\n        electionEnded = true;\n        emit ElectionEnded();\n\n        (address winner, uint maxVotes) = determineWinner();\n        emit WinnerDeclared(winner, maxVotes);\n    }\n\n    function determineWinner() internal view returns (address, uint) {\n        uint maxVotes = 0;\n        address winner;\n\n        for (uint i = 0; i < candidates.length; i++) {\n            if (voteCount[candidates[i]] > maxVotes) {\n                maxVotes = voteCount[candidates[i]];\n                winner = candidates[i];\n            }\n        }\n\n        return (winner, maxVotes);\n    }\n\n    function getCandidates() public view returns (address[] memory) {\n        return candidates;\n    }\n}",
  "sourcePath": "/Users/muftau/code/src/github.com/Decentralized-Voting-App/contracts/voting.sol",
  "compiler": {
    "name": "solc",
    "version": "0.8.21+commit.d9974bed.Emscripten.clang"
  },
  "schemaVersion": "3.4.16",
  "updatedAt": "2025-04-06T18:39:55.008Z",
  "devdoc": {
    "kind": "dev",
    "methods": {},
    "version": 1
  },
  "userdoc": {
    "kind": "user",
    "methods": {},
    "version": 1
  }
}